{
  "address": "0x82BDc155511fDD8d08ED4ab0575c6B7dde408376",
  "abi": [
    {
      "inputs": [],
      "stateMutability": "nonpayable",
      "type": "constructor"
    },
    {
      "inputs": [],
      "name": "ZamaProtocolUnsupported",
      "type": "error"
    },
    {
      "anonymous": false,
      "inputs": [
        {
          "indexed": true,
          "internalType": "uint256",
          "name": "activityId",
          "type": "uint256"
        },
        {
          "indexed": false,
          "internalType": "uint256",
          "name": "startTime",
          "type": "uint256"
        },
        {
          "indexed": false,
          "internalType": "uint256",
          "name": "endTime",
          "type": "uint256"
        }
      ],
      "name": "ActivityCreated",
      "type": "event"
    },
    {
      "anonymous": false,
      "inputs": [
        {
          "indexed": true,
          "internalType": "uint256",
          "name": "activityId",
          "type": "uint256"
        },
        {
          "indexed": false,
          "internalType": "bool",
          "name": "isActive",
          "type": "bool"
        }
      ],
      "name": "ActivityUpdated",
      "type": "event"
    },
    {
      "anonymous": false,
      "inputs": [
        {
          "indexed": true,
          "internalType": "address",
          "name": "user",
          "type": "address"
        },
        {
          "indexed": false,
          "internalType": "bytes32",
          "name": "seedHash",
          "type": "bytes32"
        }
      ],
      "name": "SpinExecuted",
      "type": "event"
    },
    {
      "inputs": [],
      "name": "confidentialProtocolId",
      "outputs": [
        {
          "internalType": "uint256",
          "name": "",
          "type": "uint256"
        }
      ],
      "stateMutability": "view",
      "type": "function"
    },
    {
      "inputs": [
        {
          "internalType": "uint256",
          "name": "startTime",
          "type": "uint256"
        },
        {
          "internalType": "uint256",
          "name": "endTime",
          "type": "uint256"
        },
        {
          "internalType": "externalEuint32",
          "name": "multiplier",
          "type": "bytes32"
        },
        {
          "internalType": "bytes",
          "name": "multiplierProof",
          "type": "bytes"
        }
      ],
      "name": "createActivity",
      "outputs": [
        {
          "internalType": "uint256",
          "name": "activityId",
          "type": "uint256"
        }
      ],
      "stateMutability": "nonpayable",
      "type": "function"
    },
    {
      "inputs": [
        {
          "internalType": "uint256",
          "name": "activityId",
          "type": "uint256"
        }
      ],
      "name": "getActivity",
      "outputs": [
        {
          "internalType": "uint256",
          "name": "startTime",
          "type": "uint256"
        },
        {
          "internalType": "uint256",
          "name": "endTime",
          "type": "uint256"
        },
        {
          "internalType": "euint32",
          "name": "multiplier",
          "type": "bytes32"
        },
        {
          "internalType": "bool",
          "name": "isActive",
          "type": "bool"
        }
      ],
      "stateMutability": "view",
      "type": "function"
    },
    {
      "inputs": [],
      "name": "getActivityCount",
      "outputs": [
        {
          "internalType": "uint256",
          "name": "",
          "type": "uint256"
        }
      ],
      "stateMutability": "view",
      "type": "function"
    },
    {
      "inputs": [],
      "name": "getUserHistoryCount",
      "outputs": [
        {
          "internalType": "uint256",
          "name": "",
          "type": "uint256"
        }
      ],
      "stateMutability": "view",
      "type": "function"
    },
    {
      "inputs": [
        {
          "internalType": "uint256",
          "name": "index",
          "type": "uint256"
        }
      ],
      "name": "getUserHistoryRecord",
      "outputs": [
        {
          "components": [
            {
              "internalType": "euint64",
              "name": "timestamp",
              "type": "bytes32"
            },
            {
              "internalType": "euint32",
              "name": "poolLevel",
              "type": "bytes32"
            },
            {
              "internalType": "euint32",
              "name": "reward",
              "type": "bytes32"
            },
            {
              "internalType": "euint32",
              "name": "seedHash",
              "type": "bytes32"
            },
            {
              "internalType": "euint32",
              "name": "resultHash",
              "type": "bytes32"
            }
          ],
          "internalType": "struct SpinMachine.SpinRecord",
          "name": "record",
          "type": "tuple"
        }
      ],
      "stateMutability": "view",
      "type": "function"
    },
    {
      "inputs": [],
      "name": "getUserRandomResult",
      "outputs": [
        {
          "internalType": "euint32",
          "name": "randomResult",
          "type": "bytes32"
        }
      ],
      "stateMutability": "view",
      "type": "function"
    },
    {
      "inputs": [],
      "name": "getUserReward",
      "outputs": [
        {
          "internalType": "euint32",
          "name": "level",
          "type": "bytes32"
        },
        {
          "internalType": "euint32",
          "name": "reward",
          "type": "bytes32"
        }
      ],
      "stateMutability": "view",
      "type": "function"
    },
    {
      "inputs": [],
      "name": "getUserStats",
      "outputs": [
        {
          "components": [
            {
              "internalType": "euint32",
              "name": "totalSpins",
              "type": "bytes32"
            },
            {
              "internalType": "euint32",
              "name": "totalWins",
              "type": "bytes32"
            },
            {
              "internalType": "euint32",
              "name": "totalRewards",
              "type": "bytes32"
            }
          ],
          "internalType": "struct SpinMachine.UserStats",
          "name": "stats",
          "type": "tuple"
        }
      ],
      "stateMutability": "view",
      "type": "function"
    },
    {
      "inputs": [
        {
          "internalType": "externalEuint32",
          "name": "encryptedSeed",
          "type": "bytes32"
        },
        {
          "internalType": "bytes",
          "name": "inputProof",
          "type": "bytes"
        }
      ],
      "name": "spin",
      "outputs": [
        {
          "internalType": "euint32",
          "name": "encryptedReward",
          "type": "bytes32"
        },
        {
          "internalType": "euint32",
          "name": "encryptedLevel",
          "type": "bytes32"
        }
      ],
      "stateMutability": "nonpayable",
      "type": "function"
    },
    {
      "inputs": [
        {
          "internalType": "uint256",
          "name": "activityId",
          "type": "uint256"
        },
        {
          "internalType": "bool",
          "name": "isActive",
          "type": "bool"
        }
      ],
      "name": "updateActivity",
      "outputs": [],
      "stateMutability": "nonpayable",
      "type": "function"
    }
  ],
  "transactionHash": "0x2897357d8ba5a05ef10a33700241ad87302a336f540ba2c632aa131d6f6e97db",
  "args": [],
  "numDeployments": 3,
  "solcInputHash": "05357c80cbddb60a4a3932449b4b150e",
  "bytecode": "0x608060405234801561000f575f5ffd5b506100c461001b6100db565b80517f9e7b61f58c47dc699ac88507c4f5bb9f121c03808c5676a8078fe583e464970080546001600160a01b03199081166001600160a01b039384161790915560208301517f9e7b61f58c47dc699ac88507c4f5bb9f121c03808c5676a8078fe583e46497018054831691841691909117905560408301517f9e7b61f58c47dc699ac88507c4f5bb9f121c03808c5676a8078fe583e46497028054909216921691909117905550565b600680546001600160a01b0319163317905561024a565b604080516060810182525f808252602082018190529181019190915246600103610134575060408051606080820183525f8083526020808401829052928401819052835191820184528082529181018290529182015290565b4662aa36a7036101b3575060408051606080820183525f8083526020808401829052928401528251908101835273f0ffdc93b7e186bc2f8cb3daa75d86d1930a433d81527392c920834ec8941d2c77d188936e1f7a6f49c1279181019190915273be0e383937d564d7ff0bc3b46c51f0bf8d5c311a9181019190915290565b46617a6903610231575060408051606080820183525f8083526020808401829052928401528251908101835273f0ffdc93b7e186bc2f8cb3daa75d86d1930a433d81527392c920834ec8941d2c77d188936e1f7a6f49c1279181019190915273be0e383937d564d7ff0bc3b46c51f0bf8d5c311a9181019190915290565b6040516373cac13b60e01b815260040160405180910390fd5b61184a806102575f395ff3fe608060405234801561000f575f5ffd5b50600436106100c4575f3560e01c80635eb1fdc11161007d578063922635d811610058578063922635d8146101c9578063c9d450b614610246578063d793d83e1461025a575f5ffd5b80635eb1fdc11461018457806383b39296146101995780638927b030146101c1575f5ffd5b8063482f055c116100ad578063482f055c1461013357806353f6ad37146101475780635696282d14610171575f5ffd5b806322ce30bf146100c85780633caff99c146100df575b5f5ffd5b6005545b6040519081526020015b60405180910390f35b6100f26100ed3660046115e9565b61028a565b6040516100d691905f60a082019050825182526020830151602083015260408301516040830152606083015160608301526080830151608083015292915050565b335f908152600160205260409020546100cc565b61014f610388565b60408051825181526020808401519082015291810151908201526060016100d6565b6100cc61017f366004611645565b6103e2565b6101976101923660046116a1565b6105bc565b005b6101ac6101a73660046116d3565b6106b5565b604080519283526020830191909152016100d6565b6100cc61090d565b6102246101d73660046115e9565b5f908152600360208181526040928390208351608081018552815480825260018301549382018490526002830154958201869052919093015460ff16151560609093018390529390929190565b60408051948552602085019390935291830152151560608201526080016100d6565b335f908152600460205260409020546100cc565b6101ac335f9081526020818152604091829020825180840190935280548084526001909101549290910182905291565b6102b76040518060a001604052805f81526020015f81526020015f81526020015f81526020015f81525090565b335f9081526001602052604090205482106103195760405162461bcd60e51b815260206004820152601360248201527f496e646578206f7574206f6620626f756e64730000000000000000000000000060448201526064015b60405180910390fd5b335f9081526001602052604090208054839081106103395761033961171b565b905f5260205f2090600502016040518060a00160405290815f82015481526020016001820154815260200160028201548152602001600382015481526020016004820154815250509050919050565b6103a960405180606001604052805f81526020015f81526020015f81525090565b50335f90815260026020818152604092839020835160608101855281548152600182015492810192909252909101549181019190915290565b6006545f906001600160a01b0316331461042a5760405162461bcd60e51b81526020600482015260096024820152682737ba1037bbb732b960b91b6044820152606401610310565b8486106104795760405162461bcd60e51b815260206004820152601260248201527f496e76616c69642074696d652072616e676500000000000000000000000000006044820152606401610310565b4285116104c85760405162461bcd60e51b815260206004820152601a60248201527f456e642074696d65206d75737420626520696e206675747572650000000000006044820152606401610310565b5f6105088585858080601f0160208091040260200160405190810160405280939291908181526020018383808284375f9201919091525061091b92505050565b60058054604080516080810182528b815260208082018c81528284018781526001606085018181525f88815260039586905296872095518655925190850155516002840155519101805460ff19169115159190911790558254919550929350916105718361172f565b9091555050604080518881526020810188905283917fb224f3d19b56c8c5ff6fac8b40ada082b592179858271d14114a10e1864415a6910160405180910390a2505b95945050505050565b6006546001600160a01b031633146106025760405162461bcd60e51b81526020600482015260096024820152682737ba1037bbb732b960b91b6044820152606401610310565b5f8281526003602052604090205461065c5760405162461bcd60e51b815260206004820152601260248201527f4163746976697479206e6f7420666f756e6400000000000000000000000000006044820152606401610310565b5f82815260036020818152604092839020909101805460ff1916841515908117909155915191825283917f9f462f235b95cfb382acdf0346cac21ac596bc2c98e5159dcda62b83a0e593ab910160405180910390a25050565b5f5f5f6106f78686868080601f0160208091040260200160405190810160405280939291908181526020018383808284375f9201919091525061091b92505050565b90505f610702610931565b90505f61070f838361093c565b9050805f61071c8261096a565b90505f61072882610a67565b90505f61073482610add565b6040805180820182528581526020808201848152335f90815280835284812093518455905160019093019290925560049052818120879055815160a081019092529192508061078242610b56565b81526020808201879052604080830186905260608084018d905260809384018a9052335f81815260018086528482208054808301825590835291869020885160059093020191825594870151948101949094559185015160028401558401516003830155918301516004909101559091506107fe908584610b6c565b61080784610c42565b506108128433610c51565b5061081c82610c42565b506108278233610c51565b5061083185610c42565b5061083c8533610c51565b50805161084890610c42565b5080516108559033610c51565b506108638160200151610c42565b50610872816020015133610c51565b506108808160400151610c42565b5061088f816040015133610c51565b50336001600160a01b03167f3879ebf8d73c5aace2a2e7b5aa7506e4e4c32903597e26ceecb7fe78ad71497289426040516020016108d7929190918252602082015260400190565b60408051601f1981840301815290829052805160209182012082520160405180910390a2509b919a509098505050505050505050565b5f610916610c63565b905090565b5f61092883836004610c97565b90505b92915050565b5f6109166004610d91565b5f8261094e5761094b5f610e1e565b92505b8161095f5761095c5f610e1e565b91505b61092883835f610e30565b5f5f610977836064610eed565b90505f61098d826109886019610e1e565b610f0f565b90505f6109b96109a6846109a16019610e1e565b610f3d565b6109b4856109886041610e1e565b610f6b565b90505f6109db6109cd856109a16041610e1e565b6109b486610988605f610e1e565b90505f6109fd6109ef866109a1605f610e1e565b6109b4876109886064610e1e565b90505f610a1c84610a0e6001610e1e565b610a175f610e1e565b610f99565b90505f610a3384610a2d6002610e1e565b84610f99565b90505f610a4484610a2d6003610e1e565b9050610a5987610a535f610e1e565b83610f99565b9a9950505050505050505050565b5f5f610a7c83610a776001610e1e565b610fe0565b90505f610a8d84610a776002610e1e565b90505f610a9e85610a776003610e1e565b90505f610aaf84610a0e600a610e1e565b90505f610ac084610a2d6032610e1e565b90505f610ad184610a2d6064610e1e565b98975050505050505050565b5f5f610ae96001610e1e565b90505f5b600554811015610b44575f8181526003602081905260409091209081015460ff168015610b1b575080544210155b8015610b2b575080600101544211155b15610b3b57600201549150610b44565b50600101610aed565b50610b4f838261100e565b9392505050565b5f61092b8267ffffffffffffffff16600561103c565b6001600160a01b0383165f9081526002602052604090208054610b9890610b936001610e1e565b6110cb565b81555f610bad84610ba883610e1e565b6110f9565b90505f610bbe82610a0e6001610e1e565b9050610bce8360010154826110cb565b60018401556002830154610be290856110cb565b60028401558254610bf290610c42565b508254610bff9087610c51565b50610c0d8360010154610c42565b50610c1c836001015487610c51565b50610c2a8360020154610c42565b50610c39836002015487610c51565b50505050505050565b5f610c4d8230611127565b5090565b5f610c5c8383611127565b5090919050565b5f46600103610c725750600190565b4662aa36a703610c83575061271190565b46617a6903610c9257505f1990565b505f90565b5f5160206117fe5f395f51905f525460405163045fc19560e11b81525f915f51602061181e5f395f51905f52916001600160a01b03909116906308bf832a90610cea908890339089908990600401611773565b6020604051808303815f875af1158015610d06573d5f5f3e3d5ffd5b505050506040513d601f19601f82011682018060405250810190610d2a91906117c4565b8154604051630f8e573b60e21b8152600481018390523360248201529193506001600160a01b031690633e395cec906044015f604051808303815f87803b158015610d73575f5ffd5b505af1158015610d85573d5f5f3e3d5ffd5b50505050509392505050565b5f5160206117fe5f395f51905f5254604051636baeb74560e11b81525f915f51602061181e5f395f51905f52916001600160a01b039091169063d75d6e8a90610dde9086906004016117db565b6020604051808303815f875af1158015610dfa573d5f5f3e3d5ffd5b505050506040513d601f19601f82011682018060405250810190610b4f91906117c4565b5f61092b8263ffffffff16600461103c565b5f5f8215610e435750600160f81b610e46565b505f5b5f5160206117fe5f395f51905f52546040516322d273ad60e21b815260048101879052602481018690526001600160f81b0319831660448201525f51602061181e5f395f51905f52916001600160a01b031690638b49ceb4906064015b6020604051808303815f875af1158015610ebf573d5f5f3e3d5ffd5b505050506040513d601f19601f82011682018060405250810190610ee391906117c4565b9695505050505050565b5f82610eff57610efc5f610e1e565b92505b6109288363ffffffff8416611194565b5f82610f2157610f1e5f610e1e565b92505b81610f3257610f2f5f610e1e565b91505b61092883835f611231565b5f82610f4f57610f4c5f610e1e565b92505b81610f6057610f5d5f610e1e565b91505b61092883835f6112a8565b5f82610f7d57610f7a5f61131f565b92505b81610f8e57610f8b5f61131f565b91505b61092883835f61133a565b5f83610fab57610fa85f61131f565b93505b82610fbc57610fb95f610e1e565b92505b81610fcd57610fca5f610e1e565b91505b610fd88484846113b1565b949350505050565b5f82610ff257610fef5f610e1e565b92505b81611003576110005f610e1e565b91505b61092883835f61140d565b5f826110205761101d5f610e1e565b92505b816110315761102e5f610e1e565b91505b61092883835f611484565b5f5160206117fe5f395f51905f5254604051639cd07acb60e01b81525f915f51602061181e5f395f51905f52916001600160a01b0390911690639cd07acb9061108b90879087906004016117e9565b6020604051808303815f875af11580156110a7573d5f5f3e3d5ffd5b505050506040513d601f19601f82011682018060405250810190610fd891906117c4565b5f826110dd576110da5f610e1e565b92505b816110ee576110eb5f610e1e565b91505b61092883835f6114fb565b5f8261110b576111085f610e1e565b92505b8161111c576111195f610e1e565b91505b61092883835f611572565b5f5f51602061181e5f395f51905f528054604051635ca4b5b160e11b8152600481018690526001600160a01b03858116602483015292935091169063b9496b62906044015f604051808303815f87803b158015611182575f5ffd5b505af1158015610c39573d5f5f3e3d5ffd5b5f5160206117fe5f395f51905f52546040516367a68c5560e11b81526004810184905260248101839052600160f81b604482018190525f9290915f51602061181e5f395f51905f52916001600160a01b03169063cf4d18aa906064015b6020604051808303815f875af115801561120d573d5f5f3e3d5ffd5b505050506040513d601f19601f820116820180604052508101906105b391906117c4565b5f5f82156112445750600160f81b611247565b505f5b5f5160206117fe5f395f51905f5254604051637210768160e01b815260048101879052602481018690526001600160f81b0319831660448201525f51602061181e5f395f51905f52916001600160a01b031690637210768190606401610ea3565b5f5f82156112bb5750600160f81b6112be565b505f5b5f5160206117fe5f395f51905f5254604051631391547f60e01b815260048101879052602481018690526001600160f81b0319831660448201525f51602061181e5f395f51905f52916001600160a01b031690631391547f90606401610ea3565b5f61092b8261132e575f611331565b60015b60ff165f61103c565b5f5f821561134d5750600160f81b611350565b505f5b5f5160206117fe5f395f51905f525460405163d99882d560e01b815260048101879052602481018690526001600160f81b0319831660448201525f51602061181e5f395f51905f52916001600160a01b03169063d99882d590606401610ea3565b5f5160206117fe5f395f51905f5254604051637702dcff60e01b81526004810185905260248101849052604481018390525f915f51602061181e5f395f51905f52916001600160a01b0390911690637702dcff906064016111f1565b5f5f82156114205750600160f81b611423565b505f5b5f5160206117fe5f395f51905f525460405163f77f3f1d60e01b815260048101879052602481018690526001600160f81b0319831660448201525f51602061181e5f395f51905f52916001600160a01b03169063f77f3f1d90606401610ea3565b5f5f82156114975750600160f81b61149a565b505f5b5f5160206117fe5f395f51905f5254604051630afe14ad60e31b815260048101879052602481018690526001600160f81b0319831660448201525f51602061181e5f395f51905f52916001600160a01b0316906357f0a56890606401610ea3565b5f5f821561150e5750600160f81b611511565b505f5b5f5160206117fe5f395f51905f525460405163022f65e760e31b815260048101879052602481018690526001600160f81b0319831660448201525f51602061181e5f395f51905f52916001600160a01b03169063117b2f3890606401610ea3565b5f5f82156115855750600160f81b611588565b505f5b5f5160206117fe5f395f51905f52546040516385362ee760e01b815260048101879052602481018690526001600160f81b0319831660448201525f51602061181e5f395f51905f52916001600160a01b0316906385362ee790606401610ea3565b5f602082840312156115f9575f5ffd5b5035919050565b5f5f83601f840112611610575f5ffd5b50813567ffffffffffffffff811115611627575f5ffd5b60208301915083602082850101111561163e575f5ffd5b9250929050565b5f5f5f5f5f60808688031215611659575f5ffd5b853594506020860135935060408601359250606086013567ffffffffffffffff811115611684575f5ffd5b61169088828901611600565b969995985093965092949392505050565b5f5f604083850312156116b2575f5ffd5b82359150602083013580151581146116c8575f5ffd5b809150509250929050565b5f5f5f604084860312156116e5575f5ffd5b83359250602084013567ffffffffffffffff811115611702575f5ffd5b61170e86828701611600565b9497909650939450505050565b634e487b7160e01b5f52603260045260245ffd5b5f6001820161174c57634e487b7160e01b5f52601160045260245ffd5b5060010190565b6054811061176f57634e487b7160e01b5f52602160045260245ffd5b9052565b8481526001600160a01b0384166020820152608060408201525f8351806080840152806020860160a085015e5f60a0828501015260a0601f19601f8301168401019150506105b36060830184611753565b5f602082840312156117d4575f5ffd5b5051919050565b6020810161092b8284611753565b82815260408101610b4f602083018461175356fe9e7b61f58c47dc699ac88507c4f5bb9f121c03808c5676a8078fe583e46497019e7b61f58c47dc699ac88507c4f5bb9f121c03808c5676a8078fe583e4649700a164736f6c634300081b000a",
  "devdoc": {
    "kind": "dev",
    "methods": {
      "createActivity(uint256,uint256,bytes32,bytes)": {
        "params": {
          "endTime": "Activity end timestamp",
          "multiplier": "Encrypted multiplier for rewards",
          "multiplierProof": "Proof for the encrypted multiplier",
          "startTime": "Activity start timestamp"
        },
        "returns": {
          "activityId": "The ID of the created activity"
        }
      },
      "getActivity(uint256)": {
        "params": {
          "activityId": "The activity ID"
        },
        "returns": {
          "endTime": "Activity end time",
          "isActive": "Activity status",
          "multiplier": "Encrypted multiplier",
          "startTime": "Activity start time"
        }
      },
      "getActivityCount()": {
        "returns": {
          "_0": "count The number of activities"
        }
      },
      "getUserHistoryCount()": {
        "returns": {
          "_0": "count The number of spin records"
        }
      },
      "getUserHistoryRecord(uint256)": {
        "params": {
          "index": "The index of the record"
        },
        "returns": {
          "record": "The encrypted spin record"
        }
      },
      "getUserRandomResult()": {
        "returns": {
          "randomResult": "The encrypted random result"
        }
      },
      "getUserReward()": {
        "returns": {
          "level": "The encrypted prize level",
          "reward": "The encrypted reward amount"
        }
      },
      "getUserStats()": {
        "returns": {
          "stats": "The encrypted user statistics"
        }
      },
      "spin(bytes32,bytes)": {
        "params": {
          "encryptedSeed": "The encrypted random seed from frontend",
          "inputProof": "The zero-knowledge proof for the encrypted seed"
        },
        "returns": {
          "encryptedLevel": "The encrypted prize level",
          "encryptedReward": "The encrypted reward amount"
        }
      },
      "updateActivity(uint256,bool)": {
        "params": {
          "activityId": "The activity ID",
          "isActive": "New activity status"
        }
      }
    },
    "title": "SpinMachine - Encrypted Lottery System based on Zama FHEVM",
    "version": 1
  },
  "userdoc": {
    "errors": {
      "ZamaProtocolUnsupported()": [
        {
          "notice": "Returned if the Zama protocol is not supported on the current chain"
        }
      ]
    },
    "kind": "user",
    "methods": {
      "createActivity(uint256,uint256,bytes32,bytes)": {
        "notice": "Create a new activity (owner only)"
      },
      "getActivity(uint256)": {
        "notice": "Get activity information"
      },
      "getActivityCount()": {
        "notice": "Get total number of activities"
      },
      "getUserHistoryCount()": {
        "notice": "Get user's spin history count"
      },
      "getUserHistoryRecord(uint256)": {
        "notice": "Get a specific spin record"
      },
      "getUserRandomResult()": {
        "notice": "Get user's encrypted random result from the last spin"
      },
      "getUserReward()": {
        "notice": "Get user's current reward"
      },
      "getUserStats()": {
        "notice": "Get user statistics"
      },
      "spin(bytes32,bytes)": {
        "notice": "Execute a spin with encrypted random seed"
      },
      "updateActivity(uint256,bool)": {
        "notice": "Update activity status (owner only)"
      }
    },
    "notice": "A fair, verifiable, and privacy-preserving on-chain lottery game",
    "version": 1
  },
  "storageLayout": {
    "storage": [
      {
        "astId": 39234,
        "contract": "contracts/SpinMachine.sol:SpinMachine",
        "label": "_userRewards",
        "offset": 0,
        "slot": "0",
        "type": "t_mapping(t_address,t_struct(PrizePool)39193_storage)"
      },
      {
        "astId": 39240,
        "contract": "contracts/SpinMachine.sol:SpinMachine",
        "label": "_userHistory",
        "offset": 0,
        "slot": "1",
        "type": "t_mapping(t_address,t_array(t_struct(SpinRecord)39209_storage)dyn_storage)"
      },
      {
        "astId": 39245,
        "contract": "contracts/SpinMachine.sol:SpinMachine",
        "label": "_userStats",
        "offset": 0,
        "slot": "2",
        "type": "t_mapping(t_address,t_struct(UserStats)39229_storage)"
      },
      {
        "astId": 39250,
        "contract": "contracts/SpinMachine.sol:SpinMachine",
        "label": "_activities",
        "offset": 0,
        "slot": "3",
        "type": "t_mapping(t_uint256,t_struct(Activity)39219_storage)"
      },
      {
        "astId": 39255,
        "contract": "contracts/SpinMachine.sol:SpinMachine",
        "label": "_userRandomResults",
        "offset": 0,
        "slot": "4",
        "type": "t_mapping(t_address,t_userDefinedValueType(euint32)40223)"
      },
      {
        "astId": 39257,
        "contract": "contracts/SpinMachine.sol:SpinMachine",
        "label": "_activityCounter",
        "offset": 0,
        "slot": "5",
        "type": "t_uint256"
      },
      {
        "astId": 39259,
        "contract": "contracts/SpinMachine.sol:SpinMachine",
        "label": "_owner",
        "offset": 0,
        "slot": "6",
        "type": "t_address"
      }
    ],
    "types": {
      "t_address": {
        "encoding": "inplace",
        "label": "address",
        "numberOfBytes": "20"
      },
      "t_array(t_struct(SpinRecord)39209_storage)dyn_storage": {
        "base": "t_struct(SpinRecord)39209_storage",
        "encoding": "dynamic_array",
        "label": "struct SpinMachine.SpinRecord[]",
        "numberOfBytes": "32"
      },
      "t_bool": {
        "encoding": "inplace",
        "label": "bool",
        "numberOfBytes": "1"
      },
      "t_mapping(t_address,t_array(t_struct(SpinRecord)39209_storage)dyn_storage)": {
        "encoding": "mapping",
        "key": "t_address",
        "label": "mapping(address => struct SpinMachine.SpinRecord[])",
        "numberOfBytes": "32",
        "value": "t_array(t_struct(SpinRecord)39209_storage)dyn_storage"
      },
      "t_mapping(t_address,t_struct(PrizePool)39193_storage)": {
        "encoding": "mapping",
        "key": "t_address",
        "label": "mapping(address => struct SpinMachine.PrizePool)",
        "numberOfBytes": "32",
        "value": "t_struct(PrizePool)39193_storage"
      },
      "t_mapping(t_address,t_struct(UserStats)39229_storage)": {
        "encoding": "mapping",
        "key": "t_address",
        "label": "mapping(address => struct SpinMachine.UserStats)",
        "numberOfBytes": "32",
        "value": "t_struct(UserStats)39229_storage"
      },
      "t_mapping(t_address,t_userDefinedValueType(euint32)40223)": {
        "encoding": "mapping",
        "key": "t_address",
        "label": "mapping(address => euint32)",
        "numberOfBytes": "32",
        "value": "t_userDefinedValueType(euint32)40223"
      },
      "t_mapping(t_uint256,t_struct(Activity)39219_storage)": {
        "encoding": "mapping",
        "key": "t_uint256",
        "label": "mapping(uint256 => struct SpinMachine.Activity)",
        "numberOfBytes": "32",
        "value": "t_struct(Activity)39219_storage"
      },
      "t_struct(Activity)39219_storage": {
        "encoding": "inplace",
        "label": "struct SpinMachine.Activity",
        "members": [
          {
            "astId": 39211,
            "contract": "contracts/SpinMachine.sol:SpinMachine",
            "label": "startTime",
            "offset": 0,
            "slot": "0",
            "type": "t_uint256"
          },
          {
            "astId": 39213,
            "contract": "contracts/SpinMachine.sol:SpinMachine",
            "label": "endTime",
            "offset": 0,
            "slot": "1",
            "type": "t_uint256"
          },
          {
            "astId": 39216,
            "contract": "contracts/SpinMachine.sol:SpinMachine",
            "label": "multiplier",
            "offset": 0,
            "slot": "2",
            "type": "t_userDefinedValueType(euint32)40223"
          },
          {
            "astId": 39218,
            "contract": "contracts/SpinMachine.sol:SpinMachine",
            "label": "isActive",
            "offset": 0,
            "slot": "3",
            "type": "t_bool"
          }
        ],
        "numberOfBytes": "128"
      },
      "t_struct(PrizePool)39193_storage": {
        "encoding": "inplace",
        "label": "struct SpinMachine.PrizePool",
        "members": [
          {
            "astId": 39189,
            "contract": "contracts/SpinMachine.sol:SpinMachine",
            "label": "level",
            "offset": 0,
            "slot": "0",
            "type": "t_userDefinedValueType(euint32)40223"
          },
          {
            "astId": 39192,
            "contract": "contracts/SpinMachine.sol:SpinMachine",
            "label": "reward",
            "offset": 0,
            "slot": "1",
            "type": "t_userDefinedValueType(euint32)40223"
          }
        ],
        "numberOfBytes": "64"
      },
      "t_struct(SpinRecord)39209_storage": {
        "encoding": "inplace",
        "label": "struct SpinMachine.SpinRecord",
        "members": [
          {
            "astId": 39196,
            "contract": "contracts/SpinMachine.sol:SpinMachine",
            "label": "timestamp",
            "offset": 0,
            "slot": "0",
            "type": "t_userDefinedValueType(euint64)40231"
          },
          {
            "astId": 39199,
            "contract": "contracts/SpinMachine.sol:SpinMachine",
            "label": "poolLevel",
            "offset": 0,
            "slot": "1",
            "type": "t_userDefinedValueType(euint32)40223"
          },
          {
            "astId": 39202,
            "contract": "contracts/SpinMachine.sol:SpinMachine",
            "label": "reward",
            "offset": 0,
            "slot": "2",
            "type": "t_userDefinedValueType(euint32)40223"
          },
          {
            "astId": 39205,
            "contract": "contracts/SpinMachine.sol:SpinMachine",
            "label": "seedHash",
            "offset": 0,
            "slot": "3",
            "type": "t_userDefinedValueType(euint32)40223"
          },
          {
            "astId": 39208,
            "contract": "contracts/SpinMachine.sol:SpinMachine",
            "label": "resultHash",
            "offset": 0,
            "slot": "4",
            "type": "t_userDefinedValueType(euint32)40223"
          }
        ],
        "numberOfBytes": "160"
      },
      "t_struct(UserStats)39229_storage": {
        "encoding": "inplace",
        "label": "struct SpinMachine.UserStats",
        "members": [
          {
            "astId": 39222,
            "contract": "contracts/SpinMachine.sol:SpinMachine",
            "label": "totalSpins",
            "offset": 0,
            "slot": "0",
            "type": "t_userDefinedValueType(euint32)40223"
          },
          {
            "astId": 39225,
            "contract": "contracts/SpinMachine.sol:SpinMachine",
            "label": "totalWins",
            "offset": 0,
            "slot": "1",
            "type": "t_userDefinedValueType(euint32)40223"
          },
          {
            "astId": 39228,
            "contract": "contracts/SpinMachine.sol:SpinMachine",
            "label": "totalRewards",
            "offset": 0,
            "slot": "2",
            "type": "t_userDefinedValueType(euint32)40223"
          }
        ],
        "numberOfBytes": "96"
      },
      "t_uint256": {
        "encoding": "inplace",
        "label": "uint256",
        "numberOfBytes": "32"
      },
      "t_userDefinedValueType(euint32)40223": {
        "encoding": "inplace",
        "label": "euint32",
        "numberOfBytes": "32"
      },
      "t_userDefinedValueType(euint64)40231": {
        "encoding": "inplace",
        "label": "euint64",
        "numberOfBytes": "32"
      }
    }
  }
}